{
  "_format": "hh-sol-artifact-1",
  "contractName": "PayClawdSplitter",
  "sourceName": "contracts/PayClawdSplitter.sol",
  "abi": [
    {
      "inputs": [
        {
          "internalType": "address",
          "name": "_usdc",
          "type": "address"
        },
        {
          "internalType": "address",
          "name": "_platformWallet",
          "type": "address"
        }
      ],
      "stateMutability": "nonpayable",
      "type": "constructor"
    },
    {
      "inputs": [],
      "name": "EnforcedPause",
      "type": "error"
    },
    {
      "inputs": [],
      "name": "ExpectedPause",
      "type": "error"
    },
    {
      "inputs": [
        {
          "internalType": "address",
          "name": "owner",
          "type": "address"
        }
      ],
      "name": "OwnableInvalidOwner",
      "type": "error"
    },
    {
      "inputs": [
        {
          "internalType": "address",
          "name": "account",
          "type": "address"
        }
      ],
      "name": "OwnableUnauthorizedAccount",
      "type": "error"
    },
    {
      "inputs": [],
      "name": "ReentrancyGuardReentrantCall",
      "type": "error"
    },
    {
      "anonymous": false,
      "inputs": [
        {
          "indexed": false,
          "internalType": "address",
          "name": "developer",
          "type": "address"
        },
        {
          "indexed": false,
          "internalType": "uint256",
          "name": "amount",
          "type": "uint256"
        }
      ],
      "name": "EarningsWithdrawn",
      "type": "event"
    },
    {
      "anonymous": false,
      "inputs": [
        {
          "indexed": true,
          "internalType": "address",
          "name": "previousOwner",
          "type": "address"
        },
        {
          "indexed": true,
          "internalType": "address",
          "name": "newOwner",
          "type": "address"
        }
      ],
      "name": "OwnershipTransferred",
      "type": "event"
    },
    {
      "anonymous": false,
      "inputs": [
        {
          "indexed": false,
          "internalType": "address",
          "name": "account",
          "type": "address"
        }
      ],
      "name": "Paused",
      "type": "event"
    },
    {
      "anonymous": false,
      "inputs": [
        {
          "indexed": false,
          "internalType": "string",
          "name": "skillId",
          "type": "string"
        },
        {
          "indexed": false,
          "internalType": "address",
          "name": "user",
          "type": "address"
        },
        {
          "indexed": false,
          "internalType": "uint256",
          "name": "platformAmount",
          "type": "uint256"
        },
        {
          "indexed": false,
          "internalType": "uint256",
          "name": "devAmount",
          "type": "uint256"
        }
      ],
      "name": "PaymentProcessed",
      "type": "event"
    },
    {
      "anonymous": false,
      "inputs": [
        {
          "indexed": false,
          "internalType": "string",
          "name": "skillId",
          "type": "string"
        }
      ],
      "name": "SkillDeactivated",
      "type": "event"
    },
    {
      "anonymous": false,
      "inputs": [
        {
          "indexed": false,
          "internalType": "string",
          "name": "skillId",
          "type": "string"
        },
        {
          "indexed": false,
          "internalType": "uint256",
          "name": "newPrice",
          "type": "uint256"
        }
      ],
      "name": "SkillPriceUpdated",
      "type": "event"
    },
    {
      "anonymous": false,
      "inputs": [
        {
          "indexed": false,
          "internalType": "string",
          "name": "skillId",
          "type": "string"
        },
        {
          "indexed": false,
          "internalType": "address",
          "name": "developer",
          "type": "address"
        },
        {
          "indexed": false,
          "internalType": "uint256",
          "name": "price",
          "type": "uint256"
        },
        {
          "indexed": false,
          "internalType": "string",
          "name": "name",
          "type": "string"
        }
      ],
      "name": "SkillRegistered",
      "type": "event"
    },
    {
      "anonymous": false,
      "inputs": [
        {
          "indexed": false,
          "internalType": "address",
          "name": "account",
          "type": "address"
        }
      ],
      "name": "Unpaused",
      "type": "event"
    },
    {
      "inputs": [
        {
          "internalType": "string",
          "name": "skillId",
          "type": "string"
        },
        {
          "internalType": "address",
          "name": "user",
          "type": "address"
        }
      ],
      "name": "checkAccess",
      "outputs": [
        {
          "internalType": "bool",
          "name": "",
          "type": "bool"
        }
      ],
      "stateMutability": "view",
      "type": "function"
    },
    {
      "inputs": [
        {
          "internalType": "string",
          "name": "skillId",
          "type": "string"
        }
      ],
      "name": "deactivateSkill",
      "outputs": [],
      "stateMutability": "nonpayable",
      "type": "function"
    },
    {
      "inputs": [
        {
          "internalType": "address",
          "name": "",
          "type": "address"
        }
      ],
      "name": "devEarnings",
      "outputs": [
        {
          "internalType": "uint256",
          "name": "",
          "type": "uint256"
        }
      ],
      "stateMutability": "view",
      "type": "function"
    },
    {
      "inputs": [
        {
          "internalType": "address",
          "name": "developer",
          "type": "address"
        }
      ],
      "name": "getPendingEarnings",
      "outputs": [
        {
          "internalType": "uint256",
          "name": "",
          "type": "uint256"
        }
      ],
      "stateMutability": "view",
      "type": "function"
    },
    {
      "inputs": [],
      "name": "getTotalDevOwed",
      "outputs": [
        {
          "internalType": "uint256",
          "name": "",
          "type": "uint256"
        }
      ],
      "stateMutability": "view",
      "type": "function"
    },
    {
      "inputs": [
        {
          "internalType": "string",
          "name": "",
          "type": "string"
        },
        {
          "internalType": "address",
          "name": "",
          "type": "address"
        }
      ],
      "name": "hasPaid",
      "outputs": [
        {
          "internalType": "bool",
          "name": "",
          "type": "bool"
        }
      ],
      "stateMutability": "view",
      "type": "function"
    },
    {
      "inputs": [],
      "name": "owner",
      "outputs": [
        {
          "internalType": "address",
          "name": "",
          "type": "address"
        }
      ],
      "stateMutability": "view",
      "type": "function"
    },
    {
      "inputs": [],
      "name": "pause",
      "outputs": [],
      "stateMutability": "nonpayable",
      "type": "function"
    },
    {
      "inputs": [],
      "name": "paused",
      "outputs": [
        {
          "internalType": "bool",
          "name": "",
          "type": "bool"
        }
      ],
      "stateMutability": "view",
      "type": "function"
    },
    {
      "inputs": [
        {
          "internalType": "string",
          "name": "skillId",
          "type": "string"
        }
      ],
      "name": "payForSkill",
      "outputs": [],
      "stateMutability": "nonpayable",
      "type": "function"
    },
    {
      "inputs": [],
      "name": "platformFeePercent",
      "outputs": [
        {
          "internalType": "uint256",
          "name": "",
          "type": "uint256"
        }
      ],
      "stateMutability": "view",
      "type": "function"
    },
    {
      "inputs": [],
      "name": "platformWallet",
      "outputs": [
        {
          "internalType": "address",
          "name": "",
          "type": "address"
        }
      ],
      "stateMutability": "view",
      "type": "function"
    },
    {
      "inputs": [
        {
          "internalType": "string",
          "name": "skillId",
          "type": "string"
        },
        {
          "internalType": "address",
          "name": "developer",
          "type": "address"
        },
        {
          "internalType": "uint256",
          "name": "price",
          "type": "uint256"
        },
        {
          "internalType": "string",
          "name": "name",
          "type": "string"
        }
      ],
      "name": "registerSkill",
      "outputs": [],
      "stateMutability": "nonpayable",
      "type": "function"
    },
    {
      "inputs": [],
      "name": "renounceOwnership",
      "outputs": [],
      "stateMutability": "nonpayable",
      "type": "function"
    },
    {
      "inputs": [
        {
          "internalType": "string",
          "name": "",
          "type": "string"
        }
      ],
      "name": "skills",
      "outputs": [
        {
          "internalType": "address",
          "name": "developer",
          "type": "address"
        },
        {
          "internalType": "uint256",
          "name": "price",
          "type": "uint256"
        },
        {
          "internalType": "bool",
          "name": "active",
          "type": "bool"
        },
        {
          "internalType": "string",
          "name": "name",
          "type": "string"
        }
      ],
      "stateMutability": "view",
      "type": "function"
    },
    {
      "inputs": [
        {
          "internalType": "address",
          "name": "newOwner",
          "type": "address"
        }
      ],
      "name": "transferOwnership",
      "outputs": [],
      "stateMutability": "nonpayable",
      "type": "function"
    },
    {
      "inputs": [],
      "name": "unpause",
      "outputs": [],
      "stateMutability": "nonpayable",
      "type": "function"
    },
    {
      "inputs": [
        {
          "internalType": "uint256",
          "name": "newFeePercent",
          "type": "uint256"
        }
      ],
      "name": "updatePlatformFee",
      "outputs": [],
      "stateMutability": "nonpayable",
      "type": "function"
    },
    {
      "inputs": [
        {
          "internalType": "address",
          "name": "newWallet",
          "type": "address"
        }
      ],
      "name": "updatePlatformWallet",
      "outputs": [],
      "stateMutability": "nonpayable",
      "type": "function"
    },
    {
      "inputs": [
        {
          "internalType": "string",
          "name": "skillId",
          "type": "string"
        },
        {
          "internalType": "uint256",
          "name": "newPrice",
          "type": "uint256"
        }
      ],
      "name": "updateSkillPrice",
      "outputs": [],
      "stateMutability": "nonpayable",
      "type": "function"
    },
    {
      "inputs": [],
      "name": "usdc",
      "outputs": [
        {
          "internalType": "contract IERC20",
          "name": "",
          "type": "address"
        }
      ],
      "stateMutability": "view",
      "type": "function"
    },
    {
      "inputs": [],
      "name": "withdrawEarnings",
      "outputs": [],
      "stateMutability": "nonpayable",
      "type": "function"
    },
    {
      "inputs": [],
      "name": "withdrawPlatformFees",
      "outputs": [],
      "stateMutability": "nonpayable",
      "type": "function"
    }
  ],
  "bytecode": "0x60806040526103e86004553480156200001757600080fd5b5060405162001a3738038062001a378339810160408190526200003a9162000125565b60016000819055805460ff1916905533806200007057604051631e4fbdf760e01b81526000600482015260240160405180910390fd5b6200007b81620000ae565b50600280546001600160a01b039384166001600160a01b031991821617909155600380549290931691161790556200015d565b600180546001600160a01b03838116610100818102610100600160a81b031985161790945560405193909204169182907f8be0079c531659141344cd1fd0a4f28419497f9722a3daafe3b4186f6b6457e090600090a35050565b80516001600160a01b03811681146200012057600080fd5b919050565b600080604083850312156200013957600080fd5b620001448362000108565b9150620001546020840162000108565b90509250929050565b6118ca806200016d6000396000f3fe608060405234801561001057600080fd5b506004361061014d5760003560e01c80638c639a85116100c3578063b73c6ce91161007c578063b73c6ce9146102ca578063b91a4673146102d2578063d0b7830b14610310578063eddec6e814610318578063f2fde38b1461032b578063fa2af9da1461033e57600080fd5b80638c639a851461024f5780638d26bbe3146102585780638da5cb5b1461027b5780638dd6407514610291578063aa0b5988146102a4578063ada4ef30146102b757600080fd5b80634d812206116101155780634d812206146101d55780635c975abb146101eb578063715018a6146101f65780637e01b764146101fe57806382f1b6b11461021e5780638456cb591461024757600080fd5b80632aebd444146101525780633e413bee146101675780633f4ba83a1461019757806344a08b361461019f578063477ebab6146101c2575b600080fd5b610165610160366004611216565b610351565b005b60025461017a906001600160a01b031681565b6040516001600160a01b0390911681526020015b60405180910390f35b610165610428565b6101b26101ad366004611274565b61043a565b604051901515815260200161018e565b6101656101d03660046112c8565b610481565b6101dd6106fc565b60405190815260200161018e565b60015460ff166101b2565b61016561076e565b6101dd61020c366004611355565b60066020526000908152604090205481565b6101dd61022c366004611355565b6001600160a01b031660009081526006602052604090205490565b610165610780565b6101dd60045481565b61026b61026636600461141a565b610790565b60405161018e9493929190611457565b60015461010090046001600160a01b031661017a565b61016561029f3660046114c5565b61085c565b6101656102b2366004611511565b610963565b6101656102c5366004611355565b6109bb565b610165610a2d565b6101b26102e036600461152a565b81516020818401810180516007825292820194820194909420919093529091526000908152604090205460ff1681565b610165610b9e565b610165610326366004611216565b610d37565b610165610339366004611355565b611004565b60035461017a906001600160a01b031681565b610359611042565b60006001600160a01b031660058383604051610376929190611578565b908152604051908190036020019020546001600160a01b0316036103b55760405162461bcd60e51b81526004016103ac90611588565b60405180910390fd5b6000600583836040516103c9929190611578565b908152604051908190036020018120600201805492151560ff19909316929092179091557f627e6225842224e29d66bb4580724cd6eaaff6e3a9a7bddff23402bdb760c2399061041c90849084906115da565b60405180910390a15050565b610430611042565b610438611075565b565b60006007848460405161044e929190611578565b908152604080519182900360209081019092206001600160a01b0385166000908152925290205460ff1690509392505050565b610489611042565b6001600160a01b0384166104df5760405162461bcd60e51b815260206004820152601960248201527f496e76616c696420646576656c6f70657220616464726573730000000000000060448201526064016103ac565b600083116105235760405162461bcd60e51b815260206004820152601160248201527005072696365206d757374206265203e203607c1b60448201526064016103ac565b846105615760405162461bcd60e51b815260206004820152600e60248201526d115b5c1d1e481cdada5b1b08125160921b60448201526064016103ac565b60006001600160a01b03166005878760405161057e929190611578565b908152604051908190036020019020546001600160a01b0316146105db5760405162461bcd60e51b8152602060048201526014602482015273536b696c6c20616c72656164792065786973747360601b60448201526064016103ac565b6040518060800160405280856001600160a01b0316815260200184815260200160011515815260200183838080601f016020809104026020016040519081016040528093929190818152602001838380828437600092019190915250505091525060405160059061064f9089908990611578565b9081526040805160209281900383019020835181546001600160a01b0319166001600160a01b0390911617815591830151600183015582015160028201805460ff1916911515919091179055606082015160038201906106af9082611676565b509050507f13af43b743c6a6b662d59c125fd80f7f0341012d1a85e9cd1a420ca3765731a98686868686866040516106ec96959493929190611736565b60405180910390a1505050505050565b6002546040516370a0823160e01b81523060048201526000916001600160a01b0316906370a0823190602401602060405180830381865afa158015610745573d6000803e3d6000fd5b505050506040513d601f19601f820116820180604052508101906107699190611780565b905090565b610776611042565b61043860006110c7565b610788611042565b610438611121565b805160208183018101805160058252928201919093012091528054600182015460028301546003840180546001600160a01b0390941694929360ff90921692916107d9906115ee565b80601f0160208091040260200160405190810160405280929190818152602001828054610805906115ee565b80156108525780601f1061082757610100808354040283529160200191610852565b820191906000526020600020905b81548152906001019060200180831161083557829003601f168201915b5050505050905084565b610864611042565b60006001600160a01b031660058484604051610881929190611578565b908152604051908190036020019020546001600160a01b0316036108b75760405162461bcd60e51b81526004016103ac90611588565b600081116108fb5760405162461bcd60e51b815260206004820152601160248201527005072696365206d757374206265203e203607c1b60448201526064016103ac565b806005848460405161090e929190611578565b9081526020016040518091039020600101819055507ff1c50246f5420f750d6657c57ffc4fb4bc05c55b73e799150902c1d7c0a31c1183838360405161095693929190611799565b60405180910390a1505050565b61096b611042565b6109c48111156109b65760405162461bcd60e51b815260206004820152601660248201527546656520746f6f206869676820286d6178203235252960501b60448201526064016103ac565b600455565b6109c3611042565b6001600160a01b038116610a0b5760405162461bcd60e51b815260206004820152600f60248201526e496e76616c6964206164647265737360881b60448201526064016103ac565b600380546001600160a01b0319166001600160a01b0392909216919091179055565b610a3561115c565b3360009081526006602052604090205480610a925760405162461bcd60e51b815260206004820152601760248201527f4e6f206561726e696e677320746f20776974686472617700000000000000000060448201526064016103ac565b3360008181526006602052604080822091909155600254905163a9059cbb60e01b81526004810192909252602482018390526001600160a01b03169063a9059cbb906044016020604051808303816000875af1158015610af6573d6000803e3d6000fd5b505050506040513d601f19601f82011682018060405250810190610b1a91906117bd565b610b5a5760405162461bcd60e51b815260206004820152601160248201527015da5d1a191c985dd85b0819985a5b1959607a1b60448201526064016103ac565b60408051338152602081018390527f48dc35af7b45e2a81fffad55f6e2fafacdb1d3d0d50d24ebdc16324f5ba757f1910160405180910390a1506104386001600055565b610ba6611042565b6002546040516370a0823160e01b81523060048201526000916001600160a01b0316906370a0823190602401602060405180830381865afa158015610bef573d6000803e3d6000fd5b505050506040513d601f19601f82011682018060405250810190610c139190611780565b90506000610c1f6106fc565b90506000610c2d82846117f5565b905060008111610c755760405162461bcd60e51b81526020600482015260136024820152724e6f206665657320746f20776974686472617760681b60448201526064016103ac565b60025460035460405163a9059cbb60e01b81526001600160a01b0391821660048201526024810184905291169063a9059cbb906044016020604051808303816000875af1158015610cca573d6000803e3d6000fd5b505050506040513d601f19601f82011682018060405250810190610cee91906117bd565b610d325760405162461bcd60e51b8152602060048201526015602482015274119959481dda5d1a191c985dd85b0819985a5b1959605a1b60448201526064016103ac565b505050565b610d3f61115c565b610d47611186565b600060058383604051610d5b929190611578565b908152604051908190036020019020600281015490915060ff16610db45760405162461bcd60e51b815260206004820152601060248201526f536b696c6c206e6f742061637469766560801b60448201526064016103ac565b80546001600160a01b0316610ddb5760405162461bcd60e51b81526004016103ac90611588565b60078383604051610ded929190611578565b9081526040805160209281900383019020336000908152925290205460ff1615610e595760405162461bcd60e51b815260206004820152601b60248201527f416c7265616479207061696420666f72207468697320736b696c6c000000000060448201526064016103ac565b600181015460045460009061271090610e72908461180e565b610e7c9190611825565b90506000610e8a82846117f5565b6002546040516323b872dd60e01b8152336004820152306024820152604481018690529192506001600160a01b0316906323b872dd906064016020604051808303816000875af1158015610ee2573d6000803e3d6000fd5b505050506040513d601f19601f82011682018060405250810190610f0691906117bd565b610f435760405162461bcd60e51b815260206004820152600e60248201526d14185e5b595b9d0819985a5b195960921b60448201526064016103ac565b83546001600160a01b031660009081526006602052604081208054839290610f6c908490611847565b92505081905550600160078787604051610f87929190611578565b90815260408051602092819003830181203360008181529190945291909120805460ff1916931515939093179092557f9b5d1ee3e1e7ef08100c92a740ff4e9d3a312cc03595667e0df29ce3d5dd278191610fea9189918991908790879061185a565b60405180910390a1505050506110006001600055565b5050565b61100c611042565b6001600160a01b03811661103657604051631e4fbdf760e01b8152600060048201526024016103ac565b61103f816110c7565b50565b6001546001600160a01b036101009091041633146104385760405163118cdaa760e01b81523360048201526024016103ac565b61107d6111aa565b6001805460ff191690557f5db9ee0a495bf2e6ff9c91a7834c1ba4fdd244a5e8aa4e537bd38aeae4b073aa335b6040516001600160a01b03909116815260200160405180910390a1565b600180546001600160a01b03838116610100818102610100600160a81b031985161790945560405193909204169182907f8be0079c531659141344cd1fd0a4f28419497f9722a3daafe3b4186f6b6457e090600090a35050565b611129611186565b6001805460ff1916811790557f62e78cea01bee320cd4e420270b5ea74000d11b0c9f74754ebdbfc544b05a258336110aa565b60026000540361117f57604051633ee5aeb560e01b815260040160405180910390fd5b6002600055565b60015460ff16156104385760405163d93c066560e01b815260040160405180910390fd5b60015460ff1661043857604051638dfc202b60e01b815260040160405180910390fd5b60008083601f8401126111df57600080fd5b50813567ffffffffffffffff8111156111f757600080fd5b60208301915083602082850101111561120f57600080fd5b9250929050565b6000806020838503121561122957600080fd5b823567ffffffffffffffff81111561124057600080fd5b61124c858286016111cd565b90969095509350505050565b80356001600160a01b038116811461126f57600080fd5b919050565b60008060006040848603121561128957600080fd5b833567ffffffffffffffff8111156112a057600080fd5b6112ac868287016111cd565b90945092506112bf905060208501611258565b90509250925092565b600080600080600080608087890312156112e157600080fd5b863567ffffffffffffffff808211156112f957600080fd5b6113058a838b016111cd565b909850965086915061131960208a01611258565b955060408901359450606089013591508082111561133657600080fd5b5061134389828a016111cd565b979a9699509497509295939492505050565b60006020828403121561136757600080fd5b61137082611258565b9392505050565b634e487b7160e01b600052604160045260246000fd5b600082601f83011261139e57600080fd5b813567ffffffffffffffff808211156113b9576113b9611377565b604051601f8301601f19908116603f011681019082821181831017156113e1576113e1611377565b816040528381528660208588010111156113fa57600080fd5b836020870160208301376000602085830101528094505050505092915050565b60006020828403121561142c57600080fd5b813567ffffffffffffffff81111561144357600080fd5b61144f8482850161138d565b949350505050565b60018060a01b0385168152600060208581840152841515604084015260806060840152835180608085015260005b818110156114a15785810183015185820160a001528201611485565b50600060a0828601015260a0601f19601f8301168501019250505095945050505050565b6000806000604084860312156114da57600080fd5b833567ffffffffffffffff8111156114f157600080fd5b6114fd868287016111cd565b909790965060209590950135949350505050565b60006020828403121561152357600080fd5b5035919050565b6000806040838503121561153d57600080fd5b823567ffffffffffffffff81111561155457600080fd5b6115608582860161138d565b92505061156f60208401611258565b90509250929050565b8183823760009101908152919050565b6020808252600f908201526e14dada5b1b081b9bdd08199bdd5b99608a1b604082015260600190565b81835281816020850137506000828201602090810191909152601f909101601f19169091010190565b60208152600061144f6020830184866115b1565b600181811c9082168061160257607f821691505b60208210810361162257634e487b7160e01b600052602260045260246000fd5b50919050565b601f821115610d3257600081815260208120601f850160051c8101602086101561164f5750805b601f850160051c820191505b8181101561166e5782815560010161165b565b505050505050565b815167ffffffffffffffff81111561169057611690611377565b6116a48161169e84546115ee565b84611628565b602080601f8311600181146116d957600084156116c15750858301515b600019600386901b1c1916600185901b17855561166e565b600085815260208120601f198616915b82811015611708578886015182559484019460019091019084016116e9565b50858210156117265787850151600019600388901b60f8161c191681555b5050505050600190811b01905550565b60808152600061174a60808301888a6115b1565b6001600160a01b03871660208401526040830186905282810360608401526117738185876115b1565b9998505050505050505050565b60006020828403121561179257600080fd5b5051919050565b6040815260006117ad6040830185876115b1565b9050826020830152949350505050565b6000602082840312156117cf57600080fd5b8151801515811461137057600080fd5b634e487b7160e01b600052601160045260246000fd5b81810381811115611808576118086117df565b92915050565b8082028115828204841417611808576118086117df565b60008261184257634e487b7160e01b600052601260045260246000fd5b500490565b80820180821115611808576118086117df565b60808152600061186e6080830187896115b1565b6001600160a01b039590951660208301525060408101929092526060909101529291505056fea264697066735822122019cdb063614550346bb17a4c4089cfa735be89ddb73a037e2e0f56135db079cf64736f6c63430008140033",
  "linkReferences": {},
  "deployedLinkReferences": {}
}